:020000040000FA
:1000000050200020190200002102000023020000FD
:100010002502000027020000290200000000000065
:100020000000000000000000000000002B020000A3
:100030002D020000000000002F020000310200002D
:1000400033020000330200003109000033020000D7
:1000500033020000330200003302000033020000CC
:1000600033020000330200003302000033020000BC
:1000700033020000330200003302000033020000AC
:10008000330200003302000033020000330200009C
:10009000330200003302000033020000330200008C
:1000A000330200003302000033020000330200007C
:1000B00033020000330200000000000000000000D6
:1000C000330200003302000033020000330200005C
:1000D000330200003302000033020000330200004C
:1000E0003302000033020000330200000000000071
:1000F0000000000033020000000000003302000096
:1001000000000000000000000000000000000000EF
:1001100000000000000000000000000000000000DF
:1001200000000000000000000000000000000000CF
:1001300000000000000000000000000000000000BF
:1001400000000000000000000000000000000000AF
:10015000000000000000000000000000000000009F
:10016000000000000000000000000000000000008F
:10017000000000000000000000000000000000007F
:10018000000000000000000000000000000000006F
:10019000000000000000000000000000000000005F
:1001A000000000000000000000000000000000004F
:1001B000000000000000000000000000000000003F
:1001C000000000000000000000000000000000002F
:1001D000000000000000000000000000000000001F
:1001E000000000000000000000000000000000000F
:1001F00000000000000000000000000000000000FF
:10020000DFF810D000F032FA004800472113000058
:10021000AFF3008050200020064880470648004782
:10022000FEE7FEE7FEE7FEE7FEE7FEE7FEE7FEE7A6
:10023000FEE7FEE7BD0700000102000040EA0103FF
:100240009B0703D009E008C9121F08C0042AFAD28C
:1002500003E011F8013B00F8013B521EF9D2704750
:10026000421C10F8011B0029FBD1801A704730B5E1
:100270000B46014600202022012409E021FA02F564
:100280009D4205D303FA02F5491B04FA02F52844FE
:10029000151EA2F10102F1DC30BD2DE9F05F05462B
:1002A000002092469B4688460646814640241BE035
:1002B000284641464746224600F0F9F953465A4639
:1002C000C01A914110D311461846224600F0E0F9B9
:1002D0002D1A67EB01084F4622460120002100F04D
:1002E000D7F917EB00094E41201EA4F10104DFDC11
:1002F000484631462A464346BDE8F09F2DE9FE4F69
:10030000804681EA0300C00F0C46009021F00041B6
:1003100023F00045B8EB0200A94105D24046214632
:1003200090461C460B46024623F00040104347D03F
:10033000270DC7F30A00C3F30A510290401A019037
:1003400040286BDAC3F3130040F4801B00989246F8
:1003500020B10023D2EB030A63EB0B0B0198594643
:10036000C0F14002504600F093F906460D46504653
:100370005946019A00F0ABF910EB080061410024E6
:1003800087EA115284EAE7731A4340D0009A62B3B5
:10039000019A012A4FEA075215DC001B61EB0201AA
:1003A0004FF0004202EA0752CDE90042001C41F53D
:1003B000801132462B4600F0ABF903B0BDE8F08F58
:1003C00040462146F9E7001B61EB0201001C41F5A4
:1003D000801300185B412018A2F5001747EB0301BA
:1003E00040EAD570B6196D4111E06D084FEA360646
:1003F00045EAC0754FEA0752001B61EB0201001C81
:1004000041F5801149084FEA300000195141324648
:100410002B4603B0BDE8F04F00F06BB90098012205
:1004200040000023D0EB020263EBE073009821460A
:100430004FEAE074B8EB000061EB0401E9E783F0F8
:1004400000435BE781F0004158E72DE9FE4F81EA68
:10045000030404F0004421F0004100944FF0000B2D
:1004600023F0004350EA01045ED052EA03045BD05B
:10047000C3F30A54C1F30A552C44A4F2F334019493
:10048000A0FB0254C1F3130141F48011C3F3130321
:1004900043F4801301FB024400FB034E840A970AD5
:1004A00044EA815447EA8357A4FB076802958D0A02
:1004B00005FB07854FEA932C04FB0C542705029D8E
:1004C0004FEA065847EA1637B5EB08056EEB070CFE
:1004D000870E920E47EA811742EA8312A7FB0201B8
:1004E000B6EB0B0164EB00042B0D43EA0C335E18F2
:1004F00044EB1C50DA465146E7FB0201C5F31304F6
:100500004FEA0B3343EA14534FEA0432019C43EAA7
:100510000603A4F10C040294009CCDE900B400F0A1
:10052000F7F803B0BDE8F08F00200146F9E72DE9A8
:10053000F04D81EA030404F0004B21F0004514461D
:100540004FF0000A23F0004150EA050220D054EA9F
:1005500001021DD0C5F30A570246C5F31303C1F3C8
:100560001300C1F30A5640F4801543F48013A7EB3F
:100570000608101BD64608F2FD3873EB050002D3BF
:1005800008F1010801E092185B41B8F1000F03DAAD
:1005900000200146BDE8F08D00204FF48011064692
:1005A00084460EE0171B73EB050705D3121B63EBA4
:1005B000050306434CEA010C49084FEA3000921843
:1005C0005B4150EA0107EDD152EA030012D082EA02
:1005D000040083EA0501084305D0101BAB4106D295
:1005E0000122002306E000224FF0004302E06FF0FA
:1005F000010253101AEB06004CEB085110EB0A00F5
:1006000041EB0B01BDE8F04D00F073B8C1F30A52A5
:10061000C1F3130140F2FF3341F480119A4202DA30
:1006200000200146704740F233439A42A2F233421F
:1006300002DC524200F03BB800F02AB830B5041E8C
:1006400071F1000404DB4FF00044404264EB01010F
:10065000141E73F1000405DB1C464FF000435242A8
:1006600063EB0403994208BF904230BD064C074D2E
:1006700006E0E06840F0010394E807009847103472
:10068000AC42F6D3FFF7C0FDB8190000D81900003E
:10069000202A04DB203A00FA02F100207047914042
:1006A000C2F1200320FA03F3194390407047202A37
:1006B00004DB203A21FA02F00021704721FA02F30C
:1006C000D040C2F120029140084319467047202AC9
:1006D00006DBCB17203A41FA02F043EAE07306E06A
:1006E00041FA02F3D040C2F120029140084319467A
:1006F000704710B5141E73F1000408DA401C41F174
:10070000000192185B411A4301D120F0010010BD95
:100710002DE9F04D92469B4611B1B1FA81F202E00B
:10072000B0FA80F220329046FFF7B2FF04460F463F
:1007300040EA0A0041EA0B0153465A46084313D0E7
:10074000114653EA010019D0C8F140025046FFF7A4
:10075000AEFF05460E46504659464246FFF798FF03
:10076000084305D0012004E020463946BDE8F08D5D
:100770000020054346EAE0762C4337430A98630598
:10078000E40AA0EB08000022FD0A44EA47540A30BC
:1007900002D500200146E9E7010510196941DDE9AC
:1007A000084500196941BDE8F04DA2E7024901483A
:1007B000086070470090D0032000002010B500F0C2
:1007C0005FFE28B14D490020086048604C49086030
:1007D00000F074FE002855D04A4800684A49086075
:1007E0004848001D0068091D086046480830006838
:1007F000091D086043480C300068091D0860414825
:1008000010300068091D08603E4814300068091D5A
:1008100008603C48183000683B492031086039487E
:100820001C300068091D0860364820300068091D2A
:100830000860344824300068091D086031482830B9
:100840000068091D08602F482C300068091D0860E9
:100850002C48303000682C49403108602948343039
:100860000068091D0860274838300068091D0860C5
:1008700024483C300068091D086022484030006868
:10088000091D086000F038FE10B121491F480860BA
:1008900000F07EFD10B11F49FB20086000F096FDBE
:1008A00030B11D4802781D48016862F30301016000
:1008B00000F0AAFD18B11A494FF40070086000F06A
:1008C000C1FD30B117480168C90702D06FF00101BE
:1008D00001601548016841F470010160BFF34F8F5A
:1008E000BFF36F8F00F036FD20B110480068044957
:1008F00020310860BDE81040FFF758BF0C010040F0
:10090000380500400404001020C500404881030061
:100910008C56004018F5004058020010E40E0040CC
:10092000409602400004004088ED00E008120010EC
:100930000149024800F0A6BF24000020002000402A
:1009400037B514460846064B6A46214600F0DCF8E7
:1009500004466946002000F05AFC20463EBD0000D7
:100960000F12000002E008C8121F08C1002AFAD1C5
:1009700070477047002001E001C1121F002AFBD11F
:10098000704700002DE9FF5F82B00021DDE90430EF
:10099000020DDDF840B0034318D044F61050A2F227
:1009A000FF3242431514119801281FD0A5EB0B000C
:1009B000401C5FEA000A4FF000064E4FDFF8389106
:1009C000B046504615D5CAF1000413E01198012431
:1009D0004AA3012801D16FEA0B010298119AC0E9DC
:1009E0000031C0E9024206B0BDE8F09FCBF1000043
:1009F000DFE704460021404A491842EB0450CDE9A4
:100A0000001012E0E00707D032463B464046494618
:100A1000FFF71BFD8046894632463B461046194685
:100A2000FFF713FD06460F466410002CEAD1DDE9FE
:100A30000401DDE90023BAF1000F06DAFFF705FD36
:100A400042464B46FFF701FD05E0FFF770FD4246C9
:100A50004B46FFF76CFD04460E460022284BFFF77D
:100A6000EDFD03D84FF0FF30014607E00022254B93
:100A700020463146FFF742FCFFF7C8FD102409E08D
:100A8000002C0ADB0A220023FFF707FC039B30320D
:100A90001A55641E50EA0102F2D1641C039AC4F193
:100AA00011031444119A012A03D0012208430DD1E5
:100AB0000AE0084304D000204FF0110B119072E7B8
:100AC000A3EB0B056D1E0DE05B4504DD4FF000024E
:100AD00005F1010504E003DA4FF00002A5F101057C
:100AE000002AECD002981199C0E90231C0E9004512
:100AF00079E70000000014400000F03F30000000E3
:100B00000000F0430000E03F2DE9FF4F95B09A460A
:100B1000884606460025EEE1252877D100242746A1
:100B2000F94A0121039400E0044316F8013F203BF9
:100B300001FA03F01042F7D130782A2811D06FF073
:100B40002F033078A0F13002092A16D8039A44F016
:100B5000020402EB820203EB42021044761C039073
:100B6000EFE758F8042B0392002A03DA504244F4CA
:100B70000054039044F00204761C30782E2816D1DD
:100B800016F8010F44F004042A280DD06FF02F024C
:100B90003078A0F13003092B09D807EB870302EB6B
:100BA0004303C718761CF3E758F8047B761C3078AB
:100BB0006C280FD006DC4C2817D068280DD06A2886
:100BC00014D104E0742810D07A280FD10DE044F439
:100BD00000140AE044F4801401E044F440147278F4
:100BE000824202D104F58014761C761C3078662887
:100BF0000BD013DC582877D009DC002875D04528A5
:100C0000F6D04628F4D047281AD193E118E063289B
:100C100035D0642879D0652812D18BE1702873D043
:100C200008DC6728F1D069286FD06E280DD06F28B6
:100C300006D1ACE073282CD0752874D0782853D016
:100C40005246179990476D1C54E1C4F30250022894
:100C500009D003280DD0D8F8001004280DD00D605D
:100C600008F1040846E1D8F80010EA17C1E900527B
:100C7000F6E7D8F800100D80F2E70D70F0E718F8ED
:100C8000041B8DF8001000208DF80100EB460120B8
:100C900003E058F804BB4FF0FF3061074FF000014C
:100CA00002D40DE009F101018946B9420FDA81450C
:100CB000F8DB1BF809100029F4D108E009F1010163
:100CC00089468142FADB1BF809100029F6D1039806
:100CD0005346A0EB090721463846179A00F080FAE0
:100CE000284400EB090507E044E008E10DE01BF8AB
:100CF000010B524617999047B9F10109F7D25346B3
:100D000021463846179AF2E039E00A21C4F302522C
:100D10004FF0000B0091022A06D058F8040BC117BF
:100D2000032A09D00AE023E008F1070020F00702B7
:100D3000F2E80201904605E000B2C117042A01D191
:100D400040B2C117002906DA0A460021404261EB91
:100D500002012D2202E0220504D52B228DF8042069
:100D6000012203E0E20701D02022F7E7914657E095
:100D70000A2100E010214FF0000B00910BE0102140
:100D80004FF0000B44F004040827009103E0082012
:100D90004FF0000B0090C4F30252022A05D058F81D
:100DA000040B0021032A08D008E008F1070020F016
:100DB0000702F2E80201904603E080B2042A00D163
:100DC000C0B24FF0000922072AD53278702A07D026
:100DD000DDF800C08CF0100C5CEA0B0C05D00EE0C6
:100DE00040228DF80420012208E050EA010306D0D9
:100DF00030238DF804308DF8052002229146009BA7
:100E000083F0080353EA0B030AD150EA010201D12F
:100E1000620705D530228DF804204FF001097F1EAE
:100E20003278582A04D039A20C920CAA02920BE014
:100E30003BA2F9E75B46009AFFF72FFA0C9B9B5CFD
:100E4000029A521E0292137050EA0102F2D10298E5
:100E500004A9081A00F1200B600702D524F480349D
:100E600000E001275F4502DDA7EB0B0000E000205A
:100E700000EB0B01009003984944401A0390E003F3
:100E800006D453462146179A039800F0A9F9054461
:100E9000002706E001A85246C05D179990476D1CD7
:100EA0007F1C4F45F6DBE0030CD553462146179ACD
:100EB000039800F095F9054404E030205246179954
:100EC00090476D1C0099481E00900029F5DC08E051
:100ED0000298029952460078491C0291179990474E
:100EE0006D1CBBF10001ABF1010BF1DC5BE100F02B
:100EF00065F90544761C307800287FF40DAE19B0F2
:100F00002846BDE8F08F0000092801003031323357
:100F10003435363738396162636465660000000035
:100F2000303132333435363738394142434445461F
:100F300000000000600700D4062708F1070020F039
:100F40000700F0E80223804603F0004C5FEA0C0043
:100F500001D097A009E0200501D596A005E0E007A3
:100F600001D095A001E0AFF24C001390307823F04F
:100F7000004365280CD006DC452809D046281DD042
:100F800047287FD13BE0662818D067287AD136E021
:100F90000021112F01DB112000E0781CCDE90001B8
:100FA00004A90CA8FFF7EEFCDDE90D010C9A4FF047
:100FB000000B07F10109109200914EE04FF0004044
:100FC0000097CDE9011004A90CA8FFF7DBFCDDE9CF
:100FD0000D020C9B0F994FF0000B9146109300925D
:100FE00011B9791C00EB0109B7EB090003D4C0F17A
:100FF000FF3B07F10109A9EB0700019042E0012F37
:1010000000DA01270021112F01DD112000E0384610
:10101000CDE9000104A90CA8FFF7B4FCDDE90D013E
:101020000C9A00914FF0000BB946109221070FD493
:10103000009A4A4503DA914601E0A9F10109B9F1A4
:10104000010F05DD109AA9F10101515C3029F4D09E
:10105000B84202DA10F1040F03DA0121CDE90110E0
:1010600010E0002803DC8344A9EB000102E0411CEE
:10107000494500DD8946A0EB0B00401C01904FF074
:1010800000400290200705D40198484502DB4FF04C
:10109000FF30019000208DF84B0002980DF14B07B6
:1010A000B0F1004F25D002200C902B200D9002981B
:1010B00000280CDA404202902D200D9007E00A2112
:1010C0000298FFF7D4F83031029007F8011D0C990F
:1010D000481E0C900029F2DC02980028EFD1791EFE
:1010E0000D980870307800F0200040F0450007F8B7
:1010F000020D11A8C01BC01D02901398007800B10A
:10110000012000EB0901019801EBE0710298014414
:101110000398401A401E0390E00306D4534621462C
:10112000179A039800F05CF805441398007818B1FA
:101130005246179990476D1CE00323D5534621462C
:10114000179A039800F04CF805441BE0BBF1000F20
:1011500007DB0098584504DD1098179910F80B002C
:1011600001E0179930205246904701980BF1010B8E
:10117000401E05F10105019004D12E205246179919
:1011800090476D1CB9F10001A9F10109DEDC05E011
:1011900017F8010B5246179990476D1C0299481E8B
:1011A00002900029F4DC53462146179A03989EE6E4
:1011B0002D0000002B000000200000002DE9F04170
:1011C000044600251E461746880404D405E0394627
:1011D0002020B0476D1C641EF9D52846BDE8F0817B
:1011E0002DE9F041044600251E469046C80301D56E
:1011F000302700E02027880404D505E04146384622
:10120000B0476D1C641EF9D52846BDE8F0810A6818
:10121000531C0B601070704770B505460C46206873
:10122000411C04D000F0E0F9206800F0C5F96068C6
:10123000411C02D0002100F0B6F92868A169C0F86D
:101240002415607D227D29681043C1F86C05D4E91E
:1012500000122868C0F81425C0F80C15207D01285C
:1012600014D1A068411C02D0002100F09CF9E06874
:10127000411C04D000F0B8F9E06800F09DF9D4E911
:1012800002212868C0F80815C0F8102570BDFEE7D7
:1012900070B504460D464FF48E71206800F0B3F926
:1012A0004FF4A271206800F0AEF913492068C0F82D
:1012B0000413206840F307306907090E002804DB97
:1012C00000F1E02080F8001405E000F00F0000F1CC
:1012D000E02080F8141D206840F30730002809DB67
:1012E00000F01F02012191404009800000F1E02040
:1012F000C0F8001170BD0000800002000FB400B5FE
:1013000095B017AA01A81699FFF71AFB01A8FEF7D6
:10131000A7FFC1B201A800F027FA15B05DF814FBD1
:1013200000F08EFA03A0FFF7E9FF05A0FFF7E6FF44
:10133000FEE70000626F6F746C6F616465720A0093
:101340004E475559454E205448414E482054554E1D
:10135000470A00000D4801684068082901D00020B4
:101360007047062810D2DFE800F0030507090B0DCF
:101370000020704700207047002070470020704711
:101380000020704701207047012070473001001095
:101390000D4801684068082901D0002070470628E0
:1013A00010D2DFE800F0030507090B0D012070479C
:1013B00000207047002070470020704700207047D1
:1013C0000020704700207047300100100D48016870
:1013D0004068082901D000207047062810D2DFE8B5
:1013E00000F0030507090B0D01207047002070472E
:1013F0000020704700207047002070470020704791
:1014000000207047300100100D480168406808292D
:1014100001D000207047062810D2DFE800F0030555
:1014200007090B0D0120704700207047002070470E
:101430000020704700207047002070470020704750
:10144000300100100D4801684068082901D00020D3
:101450007047062810D2DFE800F0030507090B0DDE
:10146000012070470120704701207047012070471C
:1014700001207047012070470120704730010010A3
:101480000D4801684068082901D0002070470628EF
:1014900010D2DFE800F0030507090B0D01207047AB
:1014A00001207047012070470120704701207047DC
:1014B0000120704701207047300100100D4801687D
:1014C0004068082901D000207047062810D2DFE8C4
:1014D00000F0030507090B0D01207047012070473C
:1014E000012070470120704701207047012070479C
:1014F00001207047300100100D480168406808293C
:1015000001D000207047062810D2DFE800F0030564
:1015100007090B0D0120704700207047002070471D
:10152000002070470020704700207047002070475F
:101530003001001070B588B0054616462C780B486F
:1015400040F82460094A0869083242F82400202241
:101550006846FEF773FE04940EB1054A00E00022CF
:101560006946281D00F05CF808B070BD100000202E
:10157000FD1700002DE9FF410C46DDE90A7815460C
:101580001E46684600F022F844EA4501009A41EA06
:10159000860141EA072100EB820041EA0841C0F8D8
:1015A0000017BDE8FF811CB500220B4600921146D2
:1015B0000192FFF7DFFF1CBD1CB5002100910B4617
:1015C000012201911146FFF7D5FF1CBD01682029BA
:1015D00002D24FF0A040704701F01F0101600148A6
:1015E000704700000003005001B56846FFF7EEFFAA
:1015F000009A01219140C0F8081508BD4058002804
:1016000000D00120704708B5002242504058009099
:1016100008BDD0F80403084000D001207047000046
:101620002DE9F04106460F4615463379134903EB81
:10163000430000EBC30001EB800494F82A0000286B
:1016400002D00820BDE8F08139463046FFF7E4FDBE
:101650006560386920601DB1397F3046FFF718FE9C
:1016600030680421C0F80015002014346060A060C8
:10167000607520600121A175E4E7000024000020CE
:101680002DE9F04704460B46207900EB400101EBC1
:10169000C0001A4901EB8005204600F031F810B176
:1016A0001120BDE8F0876A61AB6000272F6285F8E2
:1016B000287000264FF48E7949462068FFF7A3FF73
:1016C00020684FF00108C0F808802946206800F023
:1016D00078F8686870B92946206800F055F858B164
:1016E00049462068FFF78AFF0028F9D02068C0F833
:1016F0000C806F613046D4E70F26FAE72400002003
:10170000007900EB400101EBC000044901EB8000CF
:101710004069002800D0012070470000240000200C
:1017200070B505460C464FF48471A06900280BD0B3
:101730002846FFF768FFD5F81805626AE168885403
:10174000606A401C606270BD2846FFF75CFFD5F8F8
:10175000180570BD1FB501238DF80030029101926C
:1017600006C8684690471FBD10B50A46054C0021C3
:101770002170231D0146181DFFF782FF20780028E5
:10178000FCD010BD000000202DE9F04107460C46BA
:1017900065694FF48E760FE094F8280010B10020B0
:1017A000BDE8F08131463846FFF728FF0028F3D026
:1017B0002146384600F005F8206AA842F2D30120FD
:1017C000EEE770B505460C464FF48E712846FFF7DC
:1017D0001AFF216AA068415C226A521C2262C5F885
:1017E0001C1570BD1FB500228DF800200291816884
:1017F0000191426106C8684690471FBD1FB5027837
:101800008DF8002042680192027A8DF80820C068A5
:1018100003900548044A083A50F8210052F8212064
:101820000146684690471FBD180000200078002838
:1018300002D102490120087070470000000000201A
:1018400000B589B00C48079000208DF818000721DA
:101850008DF820108DF819000820029006200190C4
:10186000064A01A90648FFF765FE002801D0FFF7E8
:101870000EFD09B000BD000000E0D7012D180000EA
:10188000040000202DE9FF4705460C464FF4007187
:101890002846FFF7BEFE01274FF40178002618B353
:1018A0004FF4927949462846FFF7A8FEE0B1494631
:1018B0002846FFF7A8FEC5F8088394F8290000B968
:1018C0006F6002208DF80000D5F88004C5F8800410
:1018D0000390A0690290E0680190A661E661D4E9F6
:1018E0000012684690472BE004212846FFF791FE3E
:1018F00030B34FF484712846FFF780FE00B32146D1
:101900002846FFF70DFF616AA069884218D1E06997
:1019100050B1E268616AA0612069E060E6616662D8
:101920002046FFF717FF0BE094F8290000B96F601D
:10193000C5F80883A661E268616A2046FFF70AFFDE
:101940004FF48E7841462846FFF758FE80B1606913
:10195000216A814202D294F8280028B341462846E1
:10196000FFF751FE606918B161692046FFF73AFF41
:101970004FF4A27841462846FFF740FE002818D0D1
:1019800041462846FFF73FFE94F8290000B12F603A
:10199000A06900280DD0A661E268616A04B0204603
:1019A000BDE8F047FFF7D6BE21462846FFF709FFFE
:1019B000DEE7BDE8FF870000D81900000000002026
:1019C0002400000064090000FC190000240000202D
:1019D0002C2000007409000000000000000000003E
:1019E0000020004000000000000000000000000097
:0C19F00000000000000000000090D00388
:0400000500000201F4
:00000001FF
